{
  "_format": "hh3-artifact-1",
  "contractName": "CertificateRegistry",
  "sourceName": "contracts/CertificateRegistry.sol",
  "abi": [
    {
      "anonymous": false,
      "inputs": [
        {
          "indexed": true,
          "internalType": "uint256",
          "name": "certId",
          "type": "uint256"
        },
        {
          "indexed": false,
          "internalType": "bytes32",
          "name": "docHash",
          "type": "bytes32"
        },
        {
          "indexed": false,
          "internalType": "address",
          "name": "issuer",
          "type": "address"
        }
      ],
      "name": "CertificateIssued",
      "type": "event"
    },
    {
      "anonymous": false,
      "inputs": [
        {
          "indexed": true,
          "internalType": "uint256",
          "name": "certId",
          "type": "uint256"
        },
        {
          "indexed": false,
          "internalType": "string",
          "name": "reason",
          "type": "string"
        }
      ],
      "name": "CertificateRevoked",
      "type": "event"
    },
    {
      "inputs": [],
      "name": "certCount",
      "outputs": [
        {
          "internalType": "uint256",
          "name": "",
          "type": "uint256"
        }
      ],
      "stateMutability": "view",
      "type": "function"
    },
    {
      "inputs": [
        {
          "internalType": "uint256",
          "name": "",
          "type": "uint256"
        }
      ],
      "name": "certificates",
      "outputs": [
        {
          "internalType": "bytes32",
          "name": "docHash",
          "type": "bytes32"
        },
        {
          "internalType": "string",
          "name": "storageURI",
          "type": "string"
        },
        {
          "internalType": "address",
          "name": "issuer",
          "type": "address"
        },
        {
          "internalType": "uint256",
          "name": "issuedAt",
          "type": "uint256"
        },
        {
          "internalType": "bool",
          "name": "revoked",
          "type": "bool"
        }
      ],
      "stateMutability": "view",
      "type": "function"
    },
    {
      "inputs": [
        {
          "internalType": "bytes32",
          "name": "_docHash",
          "type": "bytes32"
        },
        {
          "internalType": "string",
          "name": "_storageURI",
          "type": "string"
        }
      ],
      "name": "issueCertificate",
      "outputs": [
        {
          "internalType": "uint256",
          "name": "",
          "type": "uint256"
        }
      ],
      "stateMutability": "nonpayable",
      "type": "function"
    },
    {
      "inputs": [
        {
          "internalType": "uint256",
          "name": "certId",
          "type": "uint256"
        },
        {
          "internalType": "string",
          "name": "reason",
          "type": "string"
        }
      ],
      "name": "revokeCertificate",
      "outputs": [],
      "stateMutability": "nonpayable",
      "type": "function"
    }
  ],
  "bytecode": "0x6080604052348015600e575f5ffd5b5061063b8061001c5f395ff3fe608060405234801561000f575f5ffd5b506004361061004a575f3560e01c8063663b3e221461004e578063b1466d1d1461007b578063baf75ec714610090578063d4e207a2146100b1575b5f5ffd5b61006161005c366004610360565b6100b9565b604051610072959493929190610377565b60405180910390f35b61008e610089366004610418565b61017b565b005b6100a361009e366004610418565b610235565b604051908152602001610072565b6100a35f5481565b600160208190525f9182526040909120805491810180546100d990610460565b80601f016020809104026020016040519081016040528092919081815260200182805461010590610460565b80156101505780601f1061012757610100808354040283529160200191610150565b820191905f5260205f20905b81548152906001019060200180831161013357829003601f168201915b505050506002830154600384015460049094015492936001600160a01b039091169290915060ff1685565b5f8381526001602052604090206002015483906001600160a01b031633146101d65760405162461bcd60e51b815260206004820152600a6024820152692737ba1034b9b9bab2b960b11b604482015260640160405180910390fd5b5f84815260016020819052604091829020600401805460ff191690911790555184907f65032d3cc955c731f4c2a4178f663dbcc6c08e5163bad5a3149773f3894548d3906102279086908690610498565b60405180910390a250505050565b5f80548180610243836104c6565b91905055506040518060a0016040528085815260200184848080601f0160208091040260200160405190810160405280939291908181526020018383808284375f92018290525093855250503360208085019190915242604080860191909152606090940183905282548352600180825293909220845181559184015191928301916102d091508261054a565b506040828101516002830180546001600160a01b0319166001600160a01b03909216919091179055606083015160038301556080909201516004909101805460ff19169115159190911790555f54815186815233602082015290917fd8a0ecb95069a40f2ea3a7f27f1d532f654f679379f056ef11fe57ea1ad6e377910160405180910390a2505f549392505050565b5f60208284031215610370575f5ffd5b5035919050565b85815260a060208201525f85518060a0840152806020880160c085015e5f60c08285018101919091526001600160a01b039690961660408401526060830194909452509015156080820152601f909101601f1916010192915050565b5f5f83601f8401126103e3575f5ffd5b50813567ffffffffffffffff8111156103fa575f5ffd5b602083019150836020828501011115610411575f5ffd5b9250929050565b5f5f5f6040848603121561042a575f5ffd5b83359250602084013567ffffffffffffffff811115610447575f5ffd5b610453868287016103d3565b9497909650939450505050565b600181811c9082168061047457607f821691505b60208210810361049257634e487b7160e01b5f52602260045260245ffd5b50919050565b60208152816020820152818360408301375f818301604090810191909152601f909201601f19160101919050565b5f600182016104e357634e487b7160e01b5f52601160045260245ffd5b5060010190565b634e487b7160e01b5f52604160045260245ffd5b601f82111561054557805f5260205f20601f840160051c810160208510156105235750805b601f840160051c820191505b81811015610542575f815560010161052f565b50505b505050565b815167ffffffffffffffff811115610564576105646104ea565b610578816105728454610460565b846104fe565b6020601f8211600181146105aa575f83156105935750848201515b5f19600385901b1c1916600184901b178455610542565b5f84815260208120601f198516915b828110156105d957878501518255602094850194600190920191016105b9565b50848210156105f657868401515f19600387901b60f8161c191681555b50505050600190811b0190555056fea2646970667358221220d01e2866b59e231716534973c37e513e46b4f29013567a02c204d6c3c6f5c91464736f6c634300081c0033",
  "linkReferences": {},
  "deployedLinkReferences": {},
  "immutableReferences": {},
  "inputSourceName": "project/contracts/CertificateRegistry.sol",
  "buildInfoId": "solc-0_8_28-03836695696db1f79268f5c4ab8e7f404eea7cee"
}